{
  "contractName": "PEGGEDToken",
  "abi": [
    {
      "inputs": [
        {
          "internalType": "address",
          "name": "_stableTokenAddress",
          "type": "address"
        },
        {
          "internalType": "address",
          "name": "_peggedTokenAddress",
          "type": "address"
        }
      ],
      "stateMutability": "nonpayable",
      "type": "constructor"
    },
    {
      "inputs": [
        {
          "internalType": "uint256",
          "name": "amount",
          "type": "uint256"
        }
      ],
      "name": "getPEGToken",
      "outputs": [],
      "stateMutability": "nonpayable",
      "type": "function"
    },
    {
      "inputs": [
        {
          "internalType": "uint256",
          "name": "amount",
          "type": "uint256"
        }
      ],
      "name": "getOriginalToken",
      "outputs": [],
      "stateMutability": "nonpayable",
      "type": "function"
    }
  ],
  "bytecode": "0x6080604052600160025534801561001557600080fd5b5060405161091f38038061091f83398181016040528101906100379190610122565b816000806101000a81548173ffffffffffffffffffffffffffffffffffffffff021916908373ffffffffffffffffffffffffffffffffffffffff16021790555080600160006101000a81548173ffffffffffffffffffffffffffffffffffffffff021916908373ffffffffffffffffffffffffffffffffffffffff1602179055505050610162565b600080fd5b600073ffffffffffffffffffffffffffffffffffffffff82169050919050565b60006100ef826100c4565b9050919050565b6100ff816100e4565b811461010a57600080fd5b50565b60008151905061011c816100f6565b92915050565b60008060408385031215610139576101386100bf565b5b60006101478582860161010d565b92505060206101588582860161010d565b9150509250929050565b6107ae806101716000396000f3fe608060405234801561001057600080fd5b50600436106100365760003560e01c80632b7eade01461003b578063b3426d4214610057575b600080fd5b61005560048036038101906100509190610519565b610073565b005b610071600480360381019061006c9190610519565b610231565b005b60008054906101000a900473ffffffffffffffffffffffffffffffffffffffff1673ffffffffffffffffffffffffffffffffffffffff166323b872dd3330846040518463ffffffff1660e01b81526004016100d093929190610596565b6020604051808303816000875af11580156100ef573d6000803e3d6000fd5b505050506040513d601f19601f820116820180604052508101906101139190610605565b506000610172670de0b6b3a76400006101646064610156600254610148670de0b6b3a7640000896104b290919063ffffffff16565b6104b290919063ffffffff16565b6104c890919063ffffffff16565b6104c890919063ffffffff16565b9050600081836101829190610661565b9050600061019a600a836104b290919063ffffffff16565b9050600160009054906101000a900473ffffffffffffffffffffffffffffffffffffffff1673ffffffffffffffffffffffffffffffffffffffff166379c6506833836040518363ffffffff1660e01b81526004016101f9929190610695565b600060405180830381600087803b15801561021357600080fd5b505af1158015610227573d6000803e3d6000fd5b5050505050505050565b600160009054906101000a900473ffffffffffffffffffffffffffffffffffffffff1673ffffffffffffffffffffffffffffffffffffffff166323b872dd3330846040518463ffffffff1660e01b815260040161029093929190610596565b600060405180830381600087803b1580156102aa57600080fd5b505af11580156102be573d6000803e3d6000fd5b50505050600061030c670de0b6b3a76400006102fe600a6102f0670de0b6b3a7640000876104b290919063ffffffff16565b6104c890919063ffffffff16565b6104c890919063ffffffff16565b9050600061036c670de0b6b3a764000061035e6064610350600254610342670de0b6b3a7640000896104b290919063ffffffff16565b6104b290919063ffffffff16565b6104c890919063ffffffff16565b6104c890919063ffffffff16565b90506000818461037c9190610661565b905060008054906101000a900473ffffffffffffffffffffffffffffffffffffffff1673ffffffffffffffffffffffffffffffffffffffff1663a9059cbb33836040518363ffffffff1660e01b81526004016103d9929190610695565b6020604051808303816000875af11580156103f8573d6000803e3d6000fd5b505050506040513d601f19601f8201168201806040525081019061041c9190610605565b50600160009054906101000a900473ffffffffffffffffffffffffffffffffffffffff1673ffffffffffffffffffffffffffffffffffffffff1663d1df306c33866040518363ffffffff1660e01b815260040161047a929190610695565b600060405180830381600087803b15801561049457600080fd5b505af11580156104a8573d6000803e3d6000fd5b5050505050505050565b600081836104c091906106be565b905092915050565b600081836104d69190610747565b905092915050565b600080fd5b6000819050919050565b6104f6816104e3565b811461050157600080fd5b50565b600081359050610513816104ed565b92915050565b60006020828403121561052f5761052e6104de565b5b600061053d84828501610504565b91505092915050565b600073ffffffffffffffffffffffffffffffffffffffff82169050919050565b600061057182610546565b9050919050565b61058181610566565b82525050565b610590816104e3565b82525050565b60006060820190506105ab6000830186610578565b6105b86020830185610578565b6105c56040830184610587565b949350505050565b60008115159050919050565b6105e2816105cd565b81146105ed57600080fd5b50565b6000815190506105ff816105d9565b92915050565b60006020828403121561061b5761061a6104de565b5b6000610629848285016105f0565b91505092915050565b7f4e487b7100000000000000000000000000000000000000000000000000000000600052601160045260246000fd5b600061066c826104e3565b9150610677836104e3565b92508282101561068a57610689610632565b5b828203905092915050565b60006040820190506106aa6000830185610578565b6106b76020830184610587565b9392505050565b60006106c9826104e3565b91506106d4836104e3565b9250817fffffffffffffffffffffffffffffffffffffffffffffffffffffffffffffffff048311821515161561070d5761070c610632565b5b828202905092915050565b7f4e487b7100000000000000000000000000000000000000000000000000000000600052601260045260246000fd5b6000610752826104e3565b915061075d836104e3565b92508261076d5761076c610718565b5b82820490509291505056fea264697066735822122064b0b452052b7aef2132369897d24d0f09037ae87ed07b597043b3f0f7829ec764736f6c634300080a0033",
  "immutableReferences": {},
  "source": "pragma solidity ^0.8.0;\r\n\r\nimport  \"@openzeppelin/contracts/utils/math/SafeMath.sol\";\r\nimport  \"@openzeppelin/contracts/token/ERC20/IERC20.sol\";\r\ncontract PEGGEDToken  {\r\n  using SafeMath for uint;\r\n    // USDT token\r\n    IERC20 stableTokenAddress;\r\n\r\n    TokenB pegTokenAdd;\r\n\r\n    // !% fee for every PEG token mint and burn\r\n    uint FEE = 1;\r\n\r\n    constructor (address _stableTokenAddress, address _peggedTokenAddress  ) \r\n        {\r\n            stableTokenAddress = IERC20(_stableTokenAddress);\r\n            pegTokenAdd = TokenB(_peggedTokenAddress);\r\n\r\n        }\r\n    \r\n    function getPEGToken(uint256 amount) public {\r\n        // Transfer amount USDT tokens from msg.sender to contract\r\n        stableTokenAddress.transferFrom(msg.sender, address(this), amount);\r\n\r\n        uint fee = (((amount.mul(10**18)).mul(FEE)).div(10**2)).div(10**18);\r\n        uint tempAmount = amount - fee;\r\n        uint PEGToken = tempAmount.mul(10);\r\n\r\n        // Mint tokens to msg.sender\r\n        pegTokenAdd.mintToken(msg.sender,PEGToken);\r\n    }\r\n\r\n    function getOriginalToken (uint256 amount) public {\r\n        // Transfer amount USDT tokens from msg.sender to contract\r\n        pegTokenAdd.transferFrom(msg.sender, address(this), amount);\r\n        \r\n        uint tempAmount = ((amount.mul(10**18)).div(10)).div(10**18);\r\n        uint fee = (((tempAmount.mul(10**18)).mul(FEE)).div(10**2)).div(10**18);\r\n        uint Originaltoken = amount - fee;\r\n        // Send amount tokens to msg.sender\r\n        stableTokenAddress.transfer(msg.sender, Originaltoken);\r\n        // Mint tokens to msg.sender\r\n        pegTokenAdd.burnToken(msg.sender,amount);\r\n    }\r\n\r\n}\r\ninterface TokenB\r\n{\r\n    function mintToken(address to,uint amount) external;\r\n    function burnToken(address to,uint amount) external;\r\n    function transferFrom(address ,address,uint) external;\r\n}",
  "sourcePath": "D:\\banu\\FTProject\\Code\\PeggedToken_Assignment\\contracts\\PEGGEDToken.sol",
  "compiler": {
    "name": "solc",
    "version": "0.8.10+commit.fc410830.Emscripten.clang"
  },
  "schemaVersion": "3.4.4",
  "updatedAt": "2022-07-15T13:31:54.323Z",
  "devdoc": {
    "kind": "dev",
    "methods": {},
    "version": 1
  },
  "userdoc": {
    "kind": "user",
    "methods": {},
    "version": 1
  }
}